{"abi":[{"type":"function","name":"data","inputs":[],"outputs":[{"name":"","type":"string","internalType":"string"}],"stateMutability":"view"},{"type":"function","name":"test","inputs":[{"name":"_data","type":"string","internalType":"string"}],"outputs":[],"stateMutability":"payable"},{"type":"event","name":"Tested","inputs":[{"name":"_data","type":"string","indexed":false,"internalType":"string"}],"anonymous":false}],"bytecode":{"object":"0x608060405234801561000f575f80fd5b506104788061001d5f395ff3fe608060405260043610610028575f3560e01c806373d4a13a1461002c578063f9fbd55414610056575b5f80fd5b348015610037575f80fd5b5061004061006b565b60405161004d9190610140565b60405180910390f35b6100696100643660046101aa565b6100f6565b005b5f805461007790610216565b80601f01602080910402602001604051908101604052809291908181526020018280546100a390610216565b80156100ee5780601f106100c5576101008083540402835291602001916100ee565b820191905f5260205f20905b8154815290600101906020018083116100d157829003601f168201915b505050505081565b5f6101028284836102e0565b507f579308a873431736a5ccf988a0c1e2a6bdbb16bcc3ece8ffb180b82dd71422c582826040516101349291906103f6565b60405180910390a15050565b5f602080835283518060208501525f5b8181101561016c57858101830151858201604001528201610150565b505f6040828601015260407fffffffffffffffffffffffffffffffffffffffffffffffffffffffffffffffe0601f8301168501019250505092915050565b5f80602083850312156101bb575f80fd5b823567ffffffffffffffff808211156101d2575f80fd5b818501915085601f8301126101e5575f80fd5b8135818111156101f3575f80fd5b866020828501011115610204575f80fd5b60209290920196919550909350505050565b600181811c9082168061022a57607f821691505b602082108103610261577f4e487b71000000000000000000000000000000000000000000000000000000005f52602260045260245ffd5b50919050565b7f4e487b71000000000000000000000000000000000000000000000000000000005f52604160045260245ffd5b601f8211156102db57805f5260205f20601f840160051c810160208510156102b95750805b601f840160051c820191505b818110156102d8575f81556001016102c5565b50505b505050565b67ffffffffffffffff8311156102f8576102f8610267565b61030c836103068354610216565b83610294565b5f601f84116001811461035c575f85156103265750838201355b7fffffffffffffffffffffffffffffffffffffffffffffffffffffffffffffffff600387901b1c1916600186901b1783556102d8565b5f838152602081207fffffffffffffffffffffffffffffffffffffffffffffffffffffffffffffffe08716915b828110156103a95786850135825560209485019460019092019101610389565b50868210156103e4577fffffffffffffffffffffffffffffffffffffffffffffffffffffffffffffffff60f88860031b161c19848701351681555b505060018560011b0183555050505050565b60208152816020820152818360408301375f818301604090810191909152601f9092017fffffffffffffffffffffffffffffffffffffffffffffffffffffffffffffffe016010191905056fea26469706673582212205641a46d9eb20c06401cbe3cb0bba4a0f86eed40638cb637fd3a42e4db75e59b64736f6c63430008180033","linkReferences":{}},"methodIdentifiers":{"data()":"73d4a13a","test(string)":"f9fbd554"},"id":21}